{
    "contractName": "KeyMarketplace",
    "abi": [
        {
            "inputs": [
                {
                    "internalType": "address",
                    "name": "_store",
                    "type": "address"
                }
            ],
            "stateMutability": "nonpayable",
            "type": "constructor"
        },
        {
            "inputs": [
                {
                    "internalType": "address",
                    "name": "_keyAddress",
                    "type": "address"
                }
            ],
            "name": "buyLowestPriceKey",
            "outputs": [],
            "stateMutability": "payable",
            "type": "function"
        },
        {
            "inputs": [
                {
                    "internalType": "address",
                    "name": "_keyAddress",
                    "type": "address"
                }
            ],
            "name": "getLowestPriceKey",
            "outputs": [
                {
                    "internalType": "uint256",
                    "name": "",
                    "type": "uint256"
                }
            ],
            "stateMutability": "view",
            "type": "function"
        },
        {
            "inputs": [
                {
                    "internalType": "address",
                    "name": "",
                    "type": "address"
                }
            ],
            "name": "keyAddressToGame",
            "outputs": [
                {
                    "internalType": "address",
                    "name": "",
                    "type": "address"
                }
            ],
            "stateMutability": "view",
            "type": "function"
        },
        {
            "inputs": [
                {
                    "internalType": "address",
                    "name": "",
                    "type": "address"
                },
                {
                    "internalType": "uint256",
                    "name": "",
                    "type": "uint256"
                }
            ],
            "name": "keyAddressToKeyIDToPrice",
            "outputs": [
                {
                    "internalType": "uint256",
                    "name": "",
                    "type": "uint256"
                }
            ],
            "stateMutability": "view",
            "type": "function"
        },
        {
            "inputs": [
                {
                    "internalType": "address",
                    "name": "_keyAddress",
                    "type": "address"
                },
                {
                    "internalType": "uint256",
                    "name": "_keyID",
                    "type": "uint256"
                },
                {
                    "internalType": "uint256",
                    "name": "price",
                    "type": "uint256"
                }
            ],
            "name": "setKeyForSale",
            "outputs": [],
            "stateMutability": "nonpayable",
            "type": "function"
        },
        {
            "inputs": [],
            "name": "store",
            "outputs": [
                {
                    "internalType": "address",
                    "name": "",
                    "type": "address"
                }
            ],
            "stateMutability": "view",
            "type": "function"
        }
    ],
    "bytecode": "608060405234801561001057600080fd5b506040516109a13803806109a18339818101604052602081101561003357600080fd5b5051600280546001600160a01b0319166001600160a01b0390921691909117905561093e806100636000396000f3fe6080604052600436106100555760003560e01c80631f6664c21461005a5780634e9bb9e2146100a9578063742afe82146100d157806378056f7b146101105780638c3bef5214610155578063975057e71461018e575b600080fd5b34801561006657600080fd5b5061008d6004803603602081101561007d57600080fd5b50356001600160a01b03166101a3565b604080516001600160a01b039092168252519081900360200190f35b6100cf600480360360208110156100bf57600080fd5b50356001600160a01b03166101be565b005b3480156100dd57600080fd5b506100cf600480360360608110156100f457600080fd5b506001600160a01b0381351690602081013590604001356104e7565b34801561011c57600080fd5b506101436004803603602081101561013357600080fd5b50356001600160a01b0316610679565b60408051918252519081900360200190f35b34801561016157600080fd5b506101436004803603604081101561017857600080fd5b506001600160a01b038135169060200135610813565b34801561019a57600080fd5b5061008d610830565b6000602081905290815260409020546001600160a01b031681565b8060006101ca82610679565b9050816001600160a01b03166387e1ba61826040518263ffffffff1660e01b81526004018082815260200191505060206040518083038186803b15801561021057600080fd5b505afa158015610224573d6000803e3d6000fd5b505050506040513d602081101561023a57600080fd5b50516001600160a01b031633146102825760405162461bcd60e51b815260040180806020018281038252602c8152602001806108dd602c913960400191505060405180910390fd5b816001600160a01b031663bc4e6b92826040518263ffffffff1660e01b81526004018082815260200191505060206040518083038186803b1580156102c657600080fd5b505afa1580156102da573d6000803e3d6000fd5b505050506040513d60208110156102f057600080fd5b505115156001146103325760405162461bcd60e51b815260040180806020018281038252602d815260200180610873602d913960400191505060405180910390fd5b6001600160a01b0383166000908152600160209081526040808320848452909152902054348111156103955760405162461bcd60e51b81526004018080602001828103825260338152602001806108406033913960400191505060405180910390fd5b6000836001600160a01b03166387e1ba61846040518263ffffffff1660e01b81526004018082815260200191505060206040518083038186803b1580156103db57600080fd5b505afa1580156103ef573d6000803e3d6000fd5b505050506040513d602081101561040557600080fd5b50516040519091506001600160a01b038216903480156108fc02916000818181858888f1935050505015801561043f573d6000803e3d6000fd5b506040805163d4822fbf60e01b81526004810185905233602482015290516001600160a01b0386169163d4822fbf91604480830192600092919082900301818387803b15801561048e57600080fd5b505af11580156104a2573d6000803e3d6000fd5b5050506001600160a01b0390951660009081526020818152604080832080546001600160a01b0319169055600182528083209583529490529283209290925550505050565b6000839050806001600160a01b03166387e1ba61846040518263ffffffff1660e01b81526004018082815260200191505060206040518083038186803b15801561053057600080fd5b505afa158015610544573d6000803e3d6000fd5b505050506040513d602081101561055a57600080fd5b50516001600160a01b031633146105a25760405162461bcd60e51b815260040180806020018281038252602c8152602001806108dd602c913960400191505060405180910390fd5b806001600160a01b031663bc4e6b92846040518263ffffffff1660e01b81526004018082815260200191505060206040518083038186803b1580156105e657600080fd5b505afa1580156105fa573d6000803e3d6000fd5b505050506040513d602081101561061057600080fd5b505115156001146106525760405162461bcd60e51b815260040180806020018281038252602d815260200180610873602d913960400191505060405180910390fd5b506001600160a01b0390921660009081526001602090815260408083209383529290522055565b600081818080805b846001600160a01b031663a2309ff86040518163ffffffff1660e01b815260040160206040518083038186803b1580156106ba57600080fd5b505afa1580156106ce573d6000803e3d6000fd5b505050506040513d60208110156106e457600080fd5b50518110156107c857846001600160a01b031663bc4e6b92826040518263ffffffff1660e01b81526004018082815260200191505060206040518083038186803b15801561073157600080fd5b505afa158015610745573d6000803e3d6000fd5b505050506040513d602081101561075b57600080fd5b50511515600114156107c0576001600160a01b0387166000908152600160208181526040808420858552909152909120549092508411156107c0576001600160a01b038716600090815260016020908152604080832084845290915290205493509150815b600101610681565b5060018115151461080a5760405162461bcd60e51b815260040180806020018281038252603d8152602001806108a0603d913960400191505060405180910390fd5b50949350505050565b600160209081526000928352604080842090915290825290205481565b6002546001600160a01b03168156fe4b4559204d41524b4554504c4143453a206d73672e76616c7565206973206e6f7420656e6f75676820746f20627579206b65794b4559204d41524b4554504c4143453a206b6579206973206e6f7420617070726f76656420666f722073616c654b4559204d41524b4554504c4143453a204e6f206b65797320666f722073616c6520666f756e6420666f722074686973206b657920616464726573732e4b4559204d41524b4554504c4143453a206d73672e73656e646572206973206e6f74206b6579206f776e6572a2646970667358221220ab351cf2209104a0ec9906b99389e53d0cf4a086a36fd4bcd458fb407a455ee264736f6c63430007060033",
    "sourcePath": "c:/Users/Pedro Ribeiro/HashGameStoreMVP/contracts/marketplace-system/KeyMarketplace.sol",
    "compiler": {
        "name": "solc",
        "version": "0.7.6+commit.7338295f"
    },
    "functionHashes": {
        "buyLowestPriceKey(address)": "4e9bb9e2",
        "getLowestPriceKey(address)": "78056f7b",
        "keyAddressToGame(address)": "1f6664c2",
        "keyAddressToKeyIDToPrice(address,uint256)": "8c3bef52",
        "setKeyForSale(address,uint256,uint256)": "742afe82",
        "store()": "975057e7"
    },
    "gasEstimates": {
        "creation": {
            "codeDepositCost": "473200",
            "executionCost": "infinite",
            "totalCost": "infinite"
        },
        "external": {
            "buyLowestPriceKey(address)": "infinite",
            "getLowestPriceKey(address)": "infinite",
            "keyAddressToGame(address)": "1144",
            "keyAddressToKeyIDToPrice(address,uint256)": "1277",
            "setKeyForSale(address,uint256,uint256)": "infinite",
            "store()": "1125"
        }
    }
}