{
    "contractName": "TaxableGameKey",
    "abi": [
        {
            "inputs": [
                {
                    "internalType": "address",
                    "name": "_marketplace",
                    "type": "address"
                },
                {
                    "internalType": "address",
                    "name": "_game",
                    "type": "address"
                }
            ],
            "stateMutability": "nonpayable",
            "type": "constructor"
        },
        {
            "inputs": [],
            "name": "game",
            "outputs": [
                {
                    "internalType": "address",
                    "name": "",
                    "type": "address"
                }
            ],
            "stateMutability": "view",
            "type": "function"
        },
        {
            "inputs": [
                {
                    "internalType": "uint256",
                    "name": "",
                    "type": "uint256"
                }
            ],
            "name": "keyToOwner",
            "outputs": [
                {
                    "internalType": "address",
                    "name": "",
                    "type": "address"
                }
            ],
            "stateMutability": "view",
            "type": "function"
        },
        {
            "inputs": [],
            "name": "marketplace",
            "outputs": [
                {
                    "internalType": "address",
                    "name": "",
                    "type": "address"
                }
            ],
            "stateMutability": "view",
            "type": "function"
        },
        {
            "inputs": [
                {
                    "internalType": "uint256",
                    "name": "_keyID",
                    "type": "uint256"
                },
                {
                    "internalType": "bool",
                    "name": "_approved",
                    "type": "bool"
                }
            ],
            "name": "setApprovedForTrade",
            "outputs": [],
            "stateMutability": "view",
            "type": "function"
        },
        {
            "inputs": [
                {
                    "internalType": "uint256",
                    "name": "_keyID",
                    "type": "uint256"
                },
                {
                    "internalType": "address",
                    "name": "_to",
                    "type": "address"
                }
            ],
            "name": "transferTo",
            "outputs": [],
            "stateMutability": "nonpayable",
            "type": "function"
        }
    ],
    "bytecode": "608060405234801561001057600080fd5b506040516103893803806103898339818101604052604081101561003357600080fd5b508051602090910151600180546001600160a01b039384166001600160a01b0319918216179091556000805493909216921691909117905561030f8061007a6000396000f3fe608060405234801561001057600080fd5b50600436106100575760003560e01c806387e1ba611461005c578063abc8c7af14610095578063b91531181461009d578063c3fe3e28146100c4578063d4822fbf146100cc575b600080fd5b6100796004803603602081101561007257600080fd5b50356100f8565b604080516001600160a01b039092168252519081900360200190f35b610079610113565b6100c2600480360360408110156100b357600080fd5b50803590602001351515610122565b005b610079610182565b6100c2600480360360408110156100e257600080fd5b50803590602001356001600160a01b0316610191565b6002602052600090815260409020546001600160a01b031681565b6001546001600160a01b031681565b6000828152600260205260409020546001600160a01b031633146101775760405162461bcd60e51b81526004018080602001828103825260268152602001806102b46026913960400191505060405180910390fd5b506000526003602052565b6000546001600160a01b031681565b6001546001600160a01b031633146101da5760405162461bcd60e51b815260040180806020018281038252602981526020018061025b6029913960400191505060405180910390fd5b60008281526003602052604090205460ff16151560011461022c5760405162461bcd60e51b81526004018080602001828103825260308152602001806102846030913960400191505060405180910390fd5b60009182526002602052604090912080546001600160a01b0319166001600160a01b0390921691909117905556fe6d73672e73656e646572206973206e6f7420746865206d61726b6574706c6163652061646472657373546865206b6579206973206e6f7420617070726f76656420627920746865206f776e657220666f722074726164696e676d73672e73656e646572206973206e6f7420746865206f776e6572206f6620746865206b6579a264697066735822122097a6797d3d7d976391d8c526595a4b749063cac84b1b6c9f4ac42a336e38ec4f64736f6c63430007060033",
    "sourcePath": "c:/Users/Pedro Ribeiro/HashGameStoreMVP/contracts/TaxableNFT.sol",
    "compiler": {
        "name": "solc",
        "version": "0.7.6+commit.7338295f"
    },
    "functionHashes": {
        "game()": "c3fe3e28",
        "keyToOwner(uint256)": "87e1ba61",
        "marketplace()": "abc8c7af",
        "setApprovedForTrade(uint256,bool)": "b9153118",
        "transferTo(uint256,address)": "d4822fbf"
    },
    "gasEstimates": {
        "creation": {
            "codeDepositCost": "156600",
            "executionCost": "infinite",
            "totalCost": "infinite"
        },
        "external": {
            "game()": "1081",
            "keyToOwner(uint256)": "1123",
            "marketplace()": "1037",
            "setApprovedForTrade(uint256,bool)": "infinite",
            "transferTo(uint256,address)": "infinite"
        }
    }
}